:020000040800F2
:10000000002800202D1000089D0F0008A30F0008F5
:10001000A90F0008AF0F0008B50F0008000000008E
:10002000000000000000000000000000BB0F0008FE
:10003000C70F000800000000D30F0008DF0F000802
:10004000751000087510000875100008751000087C
:100050007510000875100008EB0F000875100008F7
:10006000751000087510000875100008751000085C
:10007000751000087510000875100008751000084C
:10008000751000087510000875100008751000083C
:10009000751000087510000875100008751000082C
:1000A00075100008F90F0008751000087510000899
:1000B000751000080D100008000000007510000801
:1000C0007510000800000000000000007510000816
:1000D0000000000075100008751000080000000006
:1000E0007510000875100008751000080000000069
:1000F0000000000000000000000000000000000000
:0C01000000000000000000005FF808F1A3
:10010C0010B5054C237833B9044B13B10448AFF345
:10011C0000800123237010BD380000200000000077
:10012C001C27000808B5034B1BB103490348AFF368
:10013C00008008BD000000003C0000201C270008C7
:10014C0080B500AF1E2000F0C3FF00224FF4005119
:10015C001C4801F054FA01224FF48051194801F067
:10016C004EFA00224FF40061164801F048FA0022C2
:10017C004FF48061134801F042FA00224FF4004121
:10018C00104801F03CFA01224FF480410D4801F077
:10019C0036FA00224FF480410A4801F030FA282147
:1001AC00002000F011F80C21002000F00DF80621C1
:1001BC00002000F009F80121002000F005F800BF34
:1001CC0080BD00BF000C014080B582B000AF03467B
:1001DC000A46FB711346BB71022000F079FFFB79D4
:1001EC00002B06D001224FF400415A4801F007FAC7
:1001FC0005E000224FF40041564801F000FA97F94F
:10020C000630002B06DA01224FF48061514801F0D0
:10021C00F6F905E000224FF480614E4801F0EFF949
:10022C00BB7903F04003002B06D001224FF4006190
:10023C00484801F0E4F905E000224FF4006145481C
:10024C0001F0DDF9BB7903F02003002B06D001226D
:10025C004FF480513F4801F0D2F905E000224FF4F1
:10026C0080513C4801F0CBF9BB7903F01003002B13
:10027C0006D001224FF40051364801F0C0F905E0D8
:10028C0000224FF40051334801F0B9F901224FF428
:10029C008041304801F0B3F900224FF480412D48E1
:1002AC0001F0ADF9BB7903F00803002B06D0012255
:1002BC004FF48061274801F0A2F905E000224FF4C9
:1002CC008061244801F09BF9BB7903F00403002BF7
:1002DC0006D001224FF400611E4801F090F905E0B0
:1002EC0000224FF400611B4801F089F9BB7903F03F
:1002FC000203002B06D001224FF48051154801F067
:10030C007EF905E000224FF48051124801F077F994
:10031C00BB7903F00103002B06D001224FF40051EE
:10032C000C4801F06CF905E000224FF4005109482B
:10033C0001F065F901224FF48041064801F05FF9A4
:10034C0000224FF48041034801F059F900BF0837EF
:10035C00BD4680BD000C014080B582B000AF0346A5
:10036C003A60FB710B46BB71FB79032B37D801A2AA
:10037C0052F823F091030008A1030008B103000810
:10038C00C1030008BB79803BDBB219460020FFF7A4
:10039C001BFF18E0BB79403BDBB219460020FFF78E
:1003AC0013FF10E0BB79703BDBB219460020FFF75E
:1003BC000BFF08E0BB79303BDBB219460020FFF79E
:1003CC0003FF00BF0BE00AE03B6893F90030DBB29F
:1003DC0019460120FFF7F8FE3B6801333B603B6890
:1003EC0093F90030002BEFD100BF00BF0837BD469A
:1003FC0080BD00BF80B500AF01210020FFF7E4FEF7
:10040C0000BF80BD80B582B000AF0346FB800E4BB1
:10041C001B68012B03D10D4B00221A6010E0012246
:10042C0080210B4801F0EBF8084B01221A60094BB4
:10043C0000221A60084B01221A60034B00221A603A
:10044C0000BF0837BD4680BDD0000020280000202A
:10045C0000080140C8000020CC00002080B582B00C
:10046C0000AF00F003FE00F085FB00F011FC00F083
:10047C00C1FB9D4801F088FDFFF762FE9B4A0021FD
:10048C000020FFF769FF4FF4FA7000F021FE984B43
:10049C001B680A2BFBDC964B1B68092B28DC012103
:1004AC00944801F095F80346002B21D1924B1B6820
:1004BC00002B1DD1914B1B68012B19D1904B0022A5
:1004CC001A608B4B1B68DBB28E4A19460120FFF772
:1004DC0043FF4FF4FA7000F0FBFD854B1B688A4A12
:1004EC00002142F82310824B1B680133804A1360B1
:1004FC007F4B1B68092B28DC02217E4801F068F831
:10050C000346002B21D17C4B1B68002B1DD17B4B50
:10051C001B68012B19D17A4B00221A60744B1B6893
:10052C00DBB27A4A19460120FFF716FF4FF4FA7036
:10053C0000F0CEFD6E4B1B68734A012142F823106C
:10054C006B4B1B6801336A4A1360694B1B68092BA0
:10055C0028DC0421674801F03BF80346002B21D12D
:10056C00654B1B68002B1DD1644B1B68012B19D1EB
:10057C00634B00221A605E4B1B68DBB2644A19465F
:10058C000120FFF7E9FE4FF4FA7000F0A1FD584B83
:10059C001B685D4A022142F82310554B1B6801333E
:1005AC00534A1360524B1B68092B28DC0821514815
:1005BC0001F00EF80346002B21D14F4B1B68002B8A
:1005CC001DD14E4B1B68012B19D14D4B00221A60CB
:1005DC00474B1B68DBB24F4A19460120FFF7BCFEA4
:1005EC004FF4FA7000F074FD414B1B68464A03212E
:1005FC0042F823103E4B1B6801333D4A13603C4BC1
:10060C001B68092B28DC10213A4800F0E1FF034657
:10061C00002B21D1384B1B68002B1DD1374B1B688D
:10062C00012B19D1364B00221A60314B1B68DBB2FF
:10063C00394A19460120FFF78FFE4FF4FA7000F08B
:10064C0047FD2B4B1B68304A042142F82310284BE2
:10065C001B680133264A1360254B1B68092B28DCC9
:10066C002021244800F0B4FF0346002B21D1224B5B
:10067C001B68002B1DD1214B1B68012B19D1204B62
:10068C0000221A601A4B1B68DBB2244A194601205F
:10069C00FFF762FE4FF4FA7000F01AFD144B1B6862
:1006AC00194A052142F82310114B1B680133104ADB
:1006BC0013600F4B1B68092B46DC4FF400510D489F
:1006CC0000F086FF0346002B3ED10B4B1B68002B22
:1006DC003AD10A4B1B68012B36D1094B00221A6008
:1006EC00034B1B68DBB21BE05400002034270008CE
:1006FC00C400002000080140C8000020D4000020E5
:10070C00CC000020482700089C0000204C27000843
:10071C005027000854270008582700085C270008B9
:10072C00844A19460120FFF717FE4FF4FA7000F0C7
:10073C00CFFC814B1B68814A062142F823107E4B6B
:10074C001B6801337C4A13607B4B1B68092B29DC2B
:10075C004FF480617A4800F03BFF0346002B21D117
:10076C00784B1B68002B1DD1774B1B68012B19D1C3
:10077C00764B00221A60704B1B68DBB2744A194628
:10078C000120FFF7E9FD4FF4FA7000F0A1FC6A4B71
:10079C001B686A4A072142F82310674B1B68013318
:1007AC00654A1360644B1B68092B29DC4FF400610C
:1007BC00634800F00DFF0346002B21D1614B1B68F1
:1007CC00002B1DD1604B1B68012B19D15F4B0022F4
:1007DC001A60594B1B68DBB25E4A19460120FFF7C1
:1007EC00BBFD4FF4FA7000F073FC534B1B68534A7B
:1007FC00082142F82310504B1B6801334E4A1360FA
:10080C004D4B1B68092B29DC4FF480514C4800F0F0
:10081C00DFFE0346002B21D14A4B1B68002B1DD158
:10082C00494B1B68012B19D1484B00221A60424BD3
:10083C001B68DBB2484A19460120FFF78DFD4FF4C7
:10084C00FA7000F045FC3C4B1B683C4A092142F80D
:10085C002310394B1B680133374A1360394B1B6823
:10086C00002B2FD1394B1B68012B2BD13B4B1B6819
:10087C00002B27D13A4B1B68012B23D1FFF7BAFD74
:10088C00384A00210020FFF767FD00237B6007E05A
:10089C002A4A7B68002142F823107B6801337B6075
:1008AC00254B1B687A689A42F2DB234B00221A60B4
:1008BC00254B01221A60254B00221A604FF4FA7066
:1008CC0000F006FC4FF400411D4800F081FE034689
:1008DC00002B40F0B780214B1B68002B40F0B280FE
:1008EC00194B1B68012B40F0AD800022802114486D
:1008FC0000F085FE134B01221A60144B00221A6083
:10090C00114B00221A60FFF775FD0B4B1B68002B77
:10091C002ED1154A00210020FFF71EFD4FF47A70EE
:10092C0000F0D6FBFFF766FD104A00210020FFF710
:10093C0013FD83E060270008C40000209C00002009
:10094C0000080140C8000020D4000020CC0000208A
:10095C0064270008682700086C270008D0000020D6
:10096C002800002070270008802700083427000882
:10097C00704B1A68704B1B689A424CD16D4B5A687D
:10098C006D4B5B689A4246D16A4B9A686A4B9B687E
:10099C009A4240D1674BDA68674BDB689A423AD18E
:1009AC00644B1B69002B36D1634B1B69002B32D176
:1009BC00624A00210020FFF7CFFC614A0021012090
:1009CC00FFF7CAFC5F4B00221A60012210215E481F
:1009DC0000F015FE002220215B4800F010FE4FF4C1
:1009EC00FA6000F075FB00221021574800F007FE5A
:1009FC004FF4FA7000F06CFB544B01221A60FFF7B5
:100A0C00F9FC534A00210020FFF7A6FC4FF4FA70C2
:100A1C0000F05EFB12E04F4A00210020FFF79CFC27
:100A2C004A4B00221A604FF47A7000F051FBFFF72A
:100A3C00E1FC494A00210020FFF78EFC4FF4FA70CC
:100A4C0000F046FB0421404800F0C2FD0346002B99
:100A5C0034D13E4B1B68012B30D13C4B00221A6029
:100A6C003E4B00221A603E4B00221A60354B01228D
:100A7C001A60FFF7BFFC3B4A00210020FFF76CFC1B
:100A8C0000221021304800F0BAFD012220212E480E
:100A9C0000F0B5FD4FF4FA6000F01AFB00222021A3
:100AAC00294800F0ACFD4FF4FA7000F011FBFFF791
:100ABC00A1FC294A00210020FFF74EFC022122480C
:100ACC0000F086FD0346002B7FF4E1AC234B1B6842
:100ADC00012B7FF4DCAC00228021234800F08FFD39
:100AEC00FFF788FC214A00210020FFF735FC00238A
:100AFC003B6007E00F4A3B68002142F823103B683B
:100B0C0001333B601A4B1B683A689A42F2DB184B74
:100B1C0000221A60114B00221A604FF47A7000F018
:100B2C00D7FAFFF767FC0C4A00210020FFF714FCF2
:100B3C00ADE400BF9C000020000000208C270008C2
:100B4C009C27000828000020000C0140D000002049
:100B5C00B0270008C427000834270008D400002060
:100B6C00C8000020D427000800080140E427000832
:100B7C00C400002080B590B000AF07F11803282204
:100B8C000021184601F098FD3B1D00221A605A60A6
:100B9C009A60DA601A610223BB610123BB621023E5
:100BAC00FB6202237B630023BB634FF4C013FB6324
:100BBC0007F11803184600F06BFD0346002B01D01B
:100BCC0000F016F90F237B600223BB600023FB604F
:100BDC0000233B6100237B613B1D0121184600F083
:100BEC00D9FF0346002B01D000F002F900BF4037BB
:100BFC00BD4680BD80B586B000AF07F1080300226A
:100C0C001A605A609A60DA603B4600221A605A6099
:100C1C001D4B1E4A1A601C4B92225A601A4B002222
:100C2C009A60194B4FF6FF72DA60174B00221A616B
:100C3C00154B00229A61144801F056F90346002B1B
:100C4C0001D000F0D5F84FF48053BB6007F10803D6
:100C5C0019460D4801F0ECFA0346002B01D000F0C8
:100C6C00C7F820233B6000237B603B4619460648AF
:100C7C0001F0B8FC0346002B01D000F0B9F800BF1E
:100C8C001837BD4680BD00BF540000200004004052
:100C9C0080B586B000AF07F1080300221A605A60D5
:100CAC009A60DA60394B9B69384A43F004039361CC
:100CBC00364B9B6903F004037B607B68334B9B6969
:100CCC00324A43F008039361304B9B6903F00803ED
:100CDC003B603B6800224FF4C0712D4800F08FFC44
:100CEC0000224FF638412B4800F089FC4BF63F436D
:100CFC00BB600023FB6001233B6107F1080319462D
:100D0C00234800F0E9FA4FF4C073BB600123FB6089
:100D1C0000233B6102237B6107F1080319461C4841
:100D2C0000F0DAFA0123BB601B4BFB6000233B6134
:100D3C0007F108031946174800F0CEFA0623BB60EA
:100D4C000023FB6001233B6107F10803194611489E
:100D5C0000F0C2FA4FF63843BB600123FB6000235E
:100D6C003B6102237B6107F108031946094800F037
:100D7C00B3FA00220121062000F083FA062000F0CD
:100D8C009CFA00BF1837BD4680BD00BF0010024062
:100D9C0000080140000C01400000211080B582B019
:100DAC0000AF78607B681B680D4A93420DD10D4BE8
:100DBC001B68012B04D108210B4800F038FC04E01F
:100DCC0000220821084800F01AFC7B681B68074ABF
:100DDC00934201D100F060F900BF0837BD4680BDD9
:100DEC0000040040D0000020000C0140002C014009
:100DFC0080B400AF72B600BFFEE7000080B485B0CF
:100E0C0000AF154B9B69144A43F001039361124BDD
:100E1C009B6903F00103BB60BB680F4BDB690E4A97
:100E2C0043F08053D3610C4BDB6903F080537B6040
:100E3C007B680A4B5B68FB60FB6823F0E063FB603C
:100E4C00FB6843F08063FB60044AFB68536000BF9F
:100E5C001437BD4680BC70470010024000000140B2
:100E6C0080B584B000AF78607B681B680D4A9342F4
:100E7C0013D10D4BDB690C4A43F00203D3610A4BCF
:100E8C00DB6903F00203FB60FB68002200211D20DC
:100E9C0000F0F7F91D2000F010FA00BF1037BD4626
:100EAC0080BD00BF000400400010024080B58CB033
:100EBC0000AF78600023BB6200237B62002387F8BD
:100ECC002F302E4B9B692D4A43F4006393612B4BBF
:100EDC009B6903F40063BB60BB6807F10C0207F16C
:100EEC0010031146184600F0B1FF00F09BFFB862EA
:100EFC00BB6A234AA2FB03239B0C013B7B62214B65
:100F0C00214A1A601F4B40F2E732DA601D4A7B6AB5
:100F1C0053601C4B00221A611A4B00229A60194B29
:100F2C0000229A61174800F0DFFF034687F82F3044
:100F3C0097F82F30002B1BD1124801F025F80346EF
:100F4C0087F82F3097F82F30002B11D1192000F093
:100F5C00B4F97B680F2B08D800227968192000F0AF
:100F6C0090F90A4A7B68136002E0012387F82F305E
:100F7C0097F82F3018463037BD4680BD0010024020
:100F8C0083DE1B43D8000020002C014030000020E1
:100F9C0080B400AFFEE780B400AFFEE780B400AFD2
:100FAC00FEE780B400AFFEE780B400AFFEE780B48C
:100FBC0000AF00BFBD4680BC704780B400AF00BF1F
:100FCC00BD4680BC704780B400AF00BFBD4680BC3E
:100FDC00704780B400AF00BFBD4680BC704780B581
:100FEC0000AF012000F03CFB00BF80BD80B500AF1E
:100FFC00024801F015F800BF80BD00BFD8000020EA
:10100C0080B500AF024801F00BF800BF80BD00BFF7
:10101C005400002080B400AF00BFBD4680BC7047B8
:10102C00FFF7F8FF0B480C490C4A002302E0D45898
:10103C00C4500433C4188C42F9D3094A094C002318
:10104C0001E013600432A242FBD301F03DFBFFF739
:10105C0005FA7047000000203800002028280008FE
:10106C003800002024010020FEE7000080B500AF0E
:10107C00084B1B68074A43F010031360032000F071
:10108C00F5F80F20FFF712FFFFF7B8FE0023184604
:10109C0080BD00BF0020024080B400AF054B1B7820
:1010AC001A46054B1B681344034A136000BFBD4628
:1010BC0080BC7047340000202001002080B400AFB9
:1010CC00024B1B681846BD4680BC704720010020AF
:1010DC0080B584B000AF7860FFF7F0FFB8607B6834
:1010EC00FB60FB68B3F1FF3F05D00A4B1B781A4637
:1010FC00FB681344FB6000BFFFF7E0FF0246BB68D0
:10110C00D31AFA689A42F7D800BF00BF1037BD4611
:10111C0080BD00BF3400002080B485B000AF786083
:10112C007B6803F00703FB600C4BDB68BB60BA68A1
:10113C004FF6FF031340BB60FB681A02BB681343F6
:10114C0043F0BF6343F40033BB60044ABB68D36015
:10115C0000BF1437BD4680BC704700BF00ED00E0F7
:10116C0080B400AF044BDB681B0A03F0070318467E
:10117C00BD4680BC704700BF00ED00E080B483B07A
:10118C0000AF0346FB7197F90730002B0BDBFB79A3
:10119C0003F01F02064997F907305B09012000FA9A
:1011AC0002F241F8232000BF0C37BD4680BC7047CB
:1011BC0000E100E080B483B000AF03463960FB71FE
:1011CC0097F90730002B0ADB3B68DAB20C4997F928
:1011DC0007301201D2B20B4483F800230AE03B68BB
:1011EC00DAB20849FB7903F00F03043B1201D2B2C7
:1011FC000B441A7600BF0C37BD4680BC704700BF4D
:10120C0000E100E000ED00E080B489B000AFF860D0
:10121C00B9607A60FB6803F00703FB61FB69C3F1FB
:10122C000703042B28BF0423BB61FB690433062B83
:10123C0002D9FB69033B00E000237B614FF0FF32D6
:10124C00BB6902FA03F3DA43BB681A407B699A4024
:10125C004FF0FF317B6901FA03F3D9437B680B40F4
:10126C00134318462437BD4680BC704780B582B006
:10127C0000AF78607868FFF74FFF00BF0837BD46B6
:10128C0080BD80B586B000AF0346B9607A60FB7351
:10129C0000237B61FFF764FF78617A68B96878692D
:1012AC00FFF7B2FF024697F90F3011461846FFF7C9
:1012BC0081FF00BF1837BD4680BD80B582B000AF3E
:1012CC000346FB7197F907301846FFF757FF00BF2D
:1012DC000837BD4680BD000080B48BB000AF78608D
:1012EC00396000237B6200233B6261E101227B6A4F
:1012FC0002FA03F3FB613B681B68FA691340BB619C
:10130C00BA69FB699A4240F050813B685B68974A26
:10131C0093425ED0954A934275D8954A934258D0E1
:10132C00934A93426FD8934A934252D0914A934234
:10133C0069D8914A93424CD08F4A934263D88F4AD2
:10134C00934246D08D4A93425DD8122B2AD8122B49
:10135C0059D801A252F823F0DF130008B913000882
:10136C00CB1300080D140008131400081314000804
:10137C0013140008131400081314000813140008A5
:10138C001314000813140008131400081314000895
:10139C00131400081314000813140008C1130008D8
:1013AC00D5130008764A934213D02CE03B68DB68D7
:1013BC003B6229E03B68DB6804333B6224E03B681A
:1013CC00DB6808333B621FE03B68DB680C333B6235
:1013DC001AE03B689B68002B02D104233B6213E0AC
:1013EC003B689B68012B05D108233B627B68FA693B
:1013FC001A6109E008233B627B68FA695A6103E0D1
:10140C0000233B6200E000BFBB69FF2B01D87B6867
:10141C0001E07B6804337B61BB69FF2B02D87B6ADC
:10142C009B0002E07B6A083B9B003B617B691A686E
:10143C000F213B6901FA03F3DB431A40396A3B691C
:10144C0001FA03F31A437B691A603B685B6803F08B
:10145C008053002B00F0A9804A4B9B69494A43F00A
:10146C0001039361474B9B6903F00103BB60BB68AD
:10147C00454A7B6A9B08023352F82330FB607B6A37
:10148C0003F003039B000F2202FA03F3DB43FA6819
:10149C001340FB607B683D4A93420DD07B683C4A0D
:1014AC00934207D07B683B4A934201D1022304E06C
:1014BC00032302E0012300E000237A6A02F0030216
:1014CC0092009340FA681343FB602F497B6A9B0898
:1014DC000233FA6841F823203B685B6803F48013FD
:1014EC00002B06D02C4B9A682B49BB6913438B609D
:1014FC0006E0294B9A68BB69DB43274913408B6094
:10150C003B685B6803F40013002B06D0224BDA68AF
:10151C002149BB691343CB6006E01F4BDA68BB69FA
:10152C00DB431D491340CB603B685B6803F400331D
:10153C00002B06D0184B5A681749BB6913434B60F4
:10154C0006E0154B5A68BB69DB43134913404B60EB
:10155C003B685B6803F48033002B1FD00E4B1A687A
:10156C000D49BB6913430B601FE000BF0000321034
:10157C000000311000002210000021100000121099
:10158C000000111000100240000001400008014052
:10159C00000C014000100140000401400B4B1A6884
:1015AC00BB69DB43094913400B607B6A01337B62E7
:1015BC003B681A687B6A22FA03F3002B7FF496AE21
:1015CC0000BF00BF2C37BD4680BC704700040140F3
:1015DC0080B485B000AF78600B467B807B689A68DE
:1015EC007B881340002B02D00123FB7301E0002306
:1015FC00FB73FB7B18461437BD4680BC704780B428
:10160C0083B000AF78600B467B8013467B707B7891
:10161C00002B03D07A887B681A6103E07B881A045C
:10162C007B681A6100BF0C37BD4680BC704780B424
:10163C0085B000AF78600B467B807B68DB68FB6015
:10164C007A88FB6813401A04FB68D9437B880B40EB
:10165C001A437B681A6100BF1437BD4680BC7047C3
:10166C0080B582B000AF0346FB80084B5A69FB88FB
:10167C001340002B06D0054AFB885361FB881846A3
:10168C00FEF7C0FE00BF0837BD4680BD0004014018
:10169C0080B586B000AF78607B68002B01D1012348
:1016AC0072E27B681B6803F00103002B00F087805B
:1016BC00924B5B6803F00C03042B0CD08F4B5B68D4
:1016CC0003F00C03082B12D18C4B5B6803F48033B2
:1016DC00B3F5803F0BD1894B1B6803F40033002B0F
:1016EC006CD07B685B68002B68D101234CE27B6873
:1016FC005B68B3F5803F06D1804B1B687F4A43F48F
:10170C00803313602EE07B685B68002B0CD17B4B25
:10171C001B687A4A23F480331360784B1B68774A32
:10172C0023F4802313601DE07B685B68B3F5A02F66
:10173C000CD1724B1B68714A43F4802313606F4BBE
:10174C001B686E4A43F4803313600BE06B4B1B68D1
:10175C006A4A23F480331360684B1B68674A23F48E
:10176C00802313607B685B68002B13D0FFF7A6FC0B
:10177C00386108E0FFF7A2FC02463B69D31A642BE0
:10178C0001D9032300E25D4B1B6803F40033002BEB
:10179C00F0D014E0FFF792FC386108E0FFF78EFC04
:1017AC0002463B69D31A642B01D90323ECE1534B5A
:1017BC001B6803F40033002BF0D100E000BF7B6802
:1017CC001B6803F00203002B63D04C4B5B6803F0E7
:1017DC000C03002B0BD0494B5B6803F00C03082B5C
:1017EC001CD1464B5B6803F48033002B16D1434B62
:1017FC001B6803F00203002B05D07B681B69012BCF
:10180C0001D00123C0E13D4B1B6823F0F8027B683B
:10181C005B69DB00394913430B603AE07B681B6959
:10182C00002B20D0364B01221A60FFF747FC3861A1
:10183C0008E0FFF743FC02463B69D31A022B01D99F
:10184C000323A1E12D4B1B6803F00203002BF0D006
:10185C002A4B1B6823F0F8027B685B69DB00274985
:10186C0013430B6015E0264B00221A60FFF726FC91
:10187C00386108E0FFF722FC02463B69D31A022BC1
:10188C0001D9032380E11D4B1B6803F00203002BDD
:10189C00F0D17B681B6803F00803002B3AD07B68FF
:1018AC009B69002B19D0174B01221A60FFF706FC1D
:1018BC00386108E0FFF702FC02463B69D31A022BA1
:1018CC0001D9032360E10D4B5B6A03F00203002B8B
:1018DC00F0D0012000F0EAFA1CE00A4B00221A605A
:1018EC00FFF7ECFB38610FE0FFF7E8FB02463B69C2
:1018FC00D31A022B08D9032346E100BF0010024083
:10190C000000424280044242924B5B6A03F00203A5
:10191C00002BE9D17B681B6803F00403002B00F05B
:10192C00A6800023FB758B4BDB6903F08053002BE7
:10193C000DD1884BDB69874A43F08053D361854BCB
:10194C00DB6903F08053BB60BB680123FB75824BE2
:10195C001B6803F48073002B18D17F4B1B687E4AE5
:10196C0043F480731360FFF7A9FB386108E0FFF7BD
:10197C00A5FB02463B69D31A642B01D9032303E16F
:10198C00754B1B6803F48073002BF0D07B68DB680D
:10199C00012B06D16F4B1B6A6E4A43F00103136295
:1019AC002DE07B68DB68002B0CD16A4B1B6A694A03
:1019BC0023F001031362674B1B6A664A23F004038E
:1019CC0013621CE07B68DB68052B0CD1614B1B6A36
:1019DC00604A43F0040313625E4B1B6A5D4A43F09A
:1019EC00010313620BE05B4B1B6A5A4A23F00103A1
:1019FC001362584B1B6A574A23F0040313627B682B
:101A0C00DB68002B15D0FFF759FB38610AE0FFF7B4
:101A1C0055FB02463B69D31A41F28832934201D9F5
:101A2C000323B1E04B4B1B6A03F00203002BEED0F7
:101A3C0014E0FFF743FB38610AE0FFF73FFB024677
:101A4C003B69D31A41F28832934201D903239BE0BC
:101A5C00404B1B6A03F00203002BEED1FB7D012BE4
:101A6C0005D13C4BDB693B4A23F08053D3617B6847
:101A7C00DB69002B00F08780364B5B6803F00C03AE
:101A8C00082B61D07B68DB69022B46D1334B0022DB
:101A9C001A60FFF713FB386108E0FFF70FFB0246F3
:101AAC003B69D31A022B01D903236DE0294B1B6828
:101ABC0003F00073002BF0D17B681B6AB3F5803FF9
:101ACC0008D1244B5B6823F400327B689B68214966
:101ADC0013434B601F4B5B6823F474127B68196AC9
:101AEC007B685B6A0B431B4913434B601B4B012206
:101AFC001A60FFF7E3FA386108E0FFF7DFFA0246F5
:101B0C003B69D31A022B01D903233DE0114B1B680F
:101B1C0003F00073002BF0D035E0104B00221A605C
:101B2C00FFF7CCFA386108E0FFF7C8FA02463B69C8
:101B3C00D31A022B01D9032326E0064B1B6803F0B2
:101B4C000073002BF0D11EE07B68DB69012B07D101
:101B5C00012319E000100240007000406000424276
:101B6C000B4B5B68FB60FB6803F480327B681B6A81
:101B7C009A4206D1FB6803F470127B685B6A9A4246
:101B8C0001D0012300E0002318461837BD4680BD64
:101B9C000010024080B584B000AF786039607B687B
:101BAC00002B01D10123D0E06A4B1B6803F0070323
:101BBC003A689A4210D9674B1B6823F007026549B3
:101BCC003B6813430B60634B1B6803F007033A68D5
:101BDC009A4201D00123B8E07B681B6803F0020332
:101BEC00002B20D07B681B6803F00403002B05D06E
:101BFC00594B5B68584A43F4E06353607B681B683D
:101C0C0003F00803002B05D0534B5B68524A43F496
:101C1C0060535360504B5B6823F0F0027B689B6809
:101C2C004D4913434B607B681B6803F00103002B89
:101C3C0040D07B685B68012B07D1474B1B6803F4D2
:101C4C000033002B15D101237FE07B685B68022BEE
:101C5C0007D1414B1B6803F00073002B09D1012302
:101C6C0073E03D4B1B6803F00203002B01D10123F1
:101C7C006BE0394B5B6823F003027B685B68364989
:101C8C0013434B60FFF71AFAF8600AE0FFF716FAF5
:101C9C000246FB68D31A41F28832934201D90323DE
:101CAC0053E02D4B5B6803F00C027B685B689B0078
:101CBC009A42EBD1274B1B6803F007033A689A4210
:101CCC0010D2244B1B6823F0070222493B681343B4
:101CDC000B60204B1B6803F007033A689A4201D053
:101CEC00012332E07B681B6803F00403002B08D04F
:101CFC00194B5B6823F4E0627B68DB68164913437D
:101D0C004B607B681B6803F00803002B09D0124B57
:101D1C005B6823F460527B681B69DB000E4913433C
:101D2C004B6000F021F802460B4B5B681B0903F07B
:101D3C000F030A49CB5C22FA03F3094A1360094BDF
:101D4C001B681846FFF7B2F8002318461037BD463B
:101D5C0080BD00BF0020024000100240F4270008A4
:101D6C002C0000203000002080B487B000AF00238E
:101D7C00FB600023BB6000237B6100237B6000239E
:101D8C003B611E4B5B68FB60FB6803F00C03042B90
:101D9C0002D0082B03D027E0194B3B6127E0FB68EE
:101DAC009B0C03F00F03174AD35C7B60FB6803F4B6
:101DBC008033002B10D0114B5B685B0C03F00103DC
:101DCC00114AD35CBB607B680D4A03FB02F2BB6813
:101DDC00B2FBF3F37B6104E07B680C4A02FB03F378
:101DEC007B617B693B6102E0054B3B6100BF3B695A
:101DFC0018461C37BD4680BC704700BF001002401F
:101E0C0000127A000C2800081C28000800093D006C
:101E1C0080B400AF024B1B681846BD4680BC7047AF
:101E2C002C00002080B500AFFFF7F2FF0246054BF7
:101E3C005B68DB0A03F007030349CB5C22FA03F36C
:101E4C00184680BD001002400428000880B483B0FE
:101E5C0000AF786039607B680F221A60114B5B68A9
:101E6C0003F003027B685A600E4B5B6803F0F002D0
:101E7C007B689A600B4B5B6803F4E0627B68DA600A
:101E8C00084B5B68DB0803F4E0627B681A61064B65
:101E9C001B6803F007023B681A6000BF0C37BD4695
:101EAC0080BC7047001002400020024080B485B016
:101EBC0000AF78600A4B1B680A4AA2FB03235B0A3B
:101ECC007A6802FB03F3FB6000BFFB685A1EFA60E2
:101EDC00002BF9D100BF00BF1437BD4680BC704742
:101EEC002C000020D34D621080B582B000AF78601A
:101EFC007B68002B01D1012341E07B6893F83D30D6
:101F0C00DBB2002B06D17B68002283F83C2078687A
:101F1C00FEF7A6FF7B68022283F83D207B681A68D7
:101F2C007B6804331946104600F06EFA7B68012278
:101F3C0083F846207B68012283F83E207B680122CF
:101F4C0083F83F207B68012283F840207B680122C4
:101F5C0083F841207B68012283F842207B680122B0
:101F6C0083F843207B68012283F844207B6801229C
:101F7C0083F845207B68012283F83D200023184616
:101F8C000837BD4680BD000080B485B000AF7860D6
:101F9C007B6893F83D30DBB2012B01D0012335E097
:101FAC007B68022283F83D207B681B68DA687B68BB
:101FBC001B6842F00102DA607B681B68164A934288
:101FCC0009D07B681B68B3F1804F04D07B681B6819
:101FDC00124A934211D17B681B689B6803F007037C
:101FEC00FB60FB68062B10D07B681B681A687B684B
:101FFC001B6842F001021A6007E07B681B681A68D4
:10200C007B681B6842F001021A60002318461437E3
:10201C00BD4680BC704700BF002C0140000400404E
:10202C0080B582B000AF78607B681B681B6903F0D9
:10203C000203022B22D17B681B68DB6803F00203CE
:10204C00022B1BD17B681B686FF002021A617B6844
:10205C0001221A777B681B689B6903F00303002B32
:10206C0003D0786800F0B4F905E0786800F0A7F9BF
:10207C00786800F0B6F97B6800221A777B681B68D9
:10208C001B6903F00403042B22D17B681B68DB68FB
:10209C0003F00403042B1BD17B681B686FF0040254
:1020AC001A617B6802221A777B681B689B6903F4B0
:1020BC004073002B03D0786800F08AF905E078684B
:1020CC0000F07DF9786800F08CF97B6800221A77B3
:1020DC007B681B681B6903F00803082B22D17B6803
:1020EC001B68DB6803F00803082B1BD17B681B689B
:1020FC006FF008021A617B6804221A777B681B68F0
:10210C00DB6903F00303002B03D0786800F060F95F
:10211C0005E0786800F053F9786800F062F97B68A4
:10212C0000221A777B681B681B6903F01003102BC5
:10213C0022D17B681B68DB6803F01003102B1BD1CA
:10214C007B681B686FF010021A617B6808221A7793
:10215C007B681B68DB6903F44073002B03D0786841
:10216C0000F036F905E0786800F029F9786800F09D
:10217C0038F97B6800221A777B681B681B6903F0AF
:10218C000103012B0ED17B681B68DB6803F0010394
:10219C00012B07D17B681B686FF001021A6178680C
:1021AC00FEF7FCFD7B681B681B6903F08003802B2A
:1021BC000ED17B681B68DB6803F08003802B07D192
:1021CC007B681B686FF080021A61786800F06BFA0C
:1021DC007B681B681B6903F04003402B0ED17B68A6
:1021EC001B68DB6803F04003402B07D17B681B683E
:1021FC006FF040021A61786800F0FCF87B681B688D
:10220C001B6903F02003202B0ED17B681B68DB6855
:10221C0003F02003202B07D17B681B686FF0200292
:10222C001A61786800F036FA00BF0837BD4680BDE9
:10223C0080B584B000AF786039600023FB737B6895
:10224C0093F83C30012B01D10223B4E07B680122CE
:10225C0083F83C207B68022283F83D207B681B6856
:10226C009B68BB60BB6823F07703BB60BB6823F43F
:10227C007F43BB607B681B68BA689A603B681B68CD
:10228C00B3F5005F3ED0B3F5005F00F28780B3F585
:10229C00805F00F08680B3F5805F7FD8702B1AD0FA
:1022AC00702B7BD8602B50D0602B77D8502B3CD028
:1022BC00502B73D8402B58D0402B6FD8302B64D078
:1022CC00302B6BD8202B60D0202B67D8002B5CD008
:1022DC00102B5AD062E07B6818683B6899683B68A1
:1022EC005A683B68DB6800F05EF97B681B689B688A
:1022FC00BB60BB6843F07703BB607B681B68BA6844
:10230C009A604FE07B6818683B6899683B685A682C
:10231C003B68DB6800F047F97B681B689A687B6850
:10232C001B6842F480429A603CE07B6818683B680A
:10233C0059683B68DB681A4600F0BEF87B681B687E
:10234C005021184600F015F92CE07B6818683B68A2
:10235C0059683B68DB681A4600F0DCF87B681B6840
:10236C006021184600F005F91CE07B6818683B6892
:10237C0059683B68DB681A4600F09EF87B681B685E
:10238C004021184600F0F5F80CE07B681A683B68B1
:10239C001B681946104600F0ECF803E00123FB73B0
:1023AC0000E000BF7B68012283F83D207B6800229F
:1023BC0083F83C20FB7B18461037BD4680BD80B4AB
:1023CC0083B000AF786000BF0C37BD4680BC70474F
:1023DC0080B483B000AF786000BF0C37BD4680BCC2
:1023EC00704780B483B000AF786000BF0C37BD4637
:1023FC0080BC704780B483B000AF786000BF0C37EE
:10240C00BD4680BC7047000080B485B000AF7860DA
:10241C0039607B681B68FB607B68254A934207D058
:10242C007B68B3F1804F03D07B68224A934208D17A
:10243C00FB6823F07003FB603B685B68FA6813432E
:10244C00FB607B681A4A934207D07B68B3F1804FDC
:10245C0003D07B68174A934208D1FB6823F440737E
:10246C00FB603B68DB68FA681343FB60FB6823F096
:10247C0080023B685B691343FB607B68FA681A60F7
:10248C003B689A687B68DA623B681A687B689A6278
:10249C007B68074A934203D13B681A697B681A63CD
:1024AC007B6801225A6100BF1437BD4680BC70475F
:1024BC00002C01400004004080B487B000AFF860ED
:1024CC00B9607A60FB681B6A7B61FB681B6A23F04E
:1024DC000102FB681A62FB689B693B613B6923F054
:1024EC00F0033B617B681B013A6913433B617B69D9
:1024FC0023F00A037B617A69BB6813437B61FB6839
:10250C003A699A61FB687A691A6200BF1C37BD464A
:10251C0080BC704780B487B000AFF860B9607A6057
:10252C00FB681B6A7B61FB681B6A23F01002FB686B
:10253C001A62FB689B693B613B6923F470433B6106
:10254C007B681B033A6913433B617B6923F0A0034F
:10255C007B61BB681B017A6913437B61FB683A6939
:10256C009A61FB687A691A6200BF1C37BD4680BC51
:10257C00704780B485B000AF786039607B689B6829
:10258C00FB60FB6823F07003FB603A68FB68134345
:10259C0043F00703FB607B68FA689A6000BF14374E
:1025AC00BD4680BC704780B487B000AFF860B9609E
:1025BC007A603B60FB689B687B617B6923F47F439B
:1025CC007B613B681A027B681A43BB6813437A69C8
:1025DC0013437B61FB687A699A6000BF1C37BD4668
:1025EC0080BC704780B485B000AF786039607B6880
:1025FC0093F83C30012B01D1022341E07B6801228E
:10260C0083F83C207B68022283F83D207B681B68A2
:10261C005B68FB607B681B689B68BB60FB6823F096
:10262C007003FB603B681B68FA681343FB607B68B4
:10263C001B68FA685A607B681B68144A934209D07D
:10264C007B681B68B3F1804F04D07B681B68104A11
:10265C0093420CD1BB6823F08003BB603B685B6882
:10266C00BA681343BB607B681B68BA689A607B6866
:10267C00012283F83D207B68002283F83C20002354
:10268C0018461437BD4680BC704700BF002C014073
:10269C000004004080B483B000AF786000BF0C37FA
:1026AC00BD4680BC704780B483B000AF786000BF7B
:1026BC000C37BD4680BC704703460244934200D1A0
:1026CC00704703F8011BF9E770B500260C4D0D4C53
:1026DC00641BA410A64209D100F01AF800260A4D7A
:1026EC000A4C641BA410A64205D170BD55F8043BDE
:1026FC0098470136EEE755F8043B98470136F2E768
:10270C002028000820280008202800082428000879
:10271C00F8B500BFF8BC08BC9E467047F8B500BFC2
:08272C00F8BC08BC9E46704792
:10273400536566206A65207A616B6C6A7563616EA5
:1027440000000000300000003100000032000000F2
:1027540033000000340000003500000036000000A3
:10276400370000003800000039000000556E657322
:102774006974652073696672750000004E656D6149
:1027840020756E6F736100004973707261766E61BB
:1027940020736966726100004F746B6C6A756361C3
:1027A40076616E6A652E2E2E0000000056726174EA
:1027B40061206F746B6C6A7563616E610000000068
:1027C4004E65697370726176616E20756E6F730009
:1027D4005A6174766172616E6A652E2E2E00000055
:1027E400506F6E697374656E20756E6F73000000B0
:1027F40000000000000000000102030406070809AD
:10280400000000000102030402030405060708098E
:0C2814000A0B0C0D0E0F1010010200004A
:04282000310100087A
:042824000D0100089A
:10282800010000000100000002000000020000009A
:102838000000000000000000000000000000000090
:102848000000000000000000010000000024F40067
:08285800100000000100000067
:040000050800102DB2
:00000001FF
